{
  "contractName": "LikeChain",
  "abi": [
    {
      "inputs": [
        {
          "internalType": "address",
          "name": "_likeToken",
          "type": "address"
        }
      ],
      "stateMutability": "nonpayable",
      "type": "constructor"
    },
    {
      "anonymous": false,
      "inputs": [
        {
          "indexed": false,
          "internalType": "uint256",
          "name": "id",
          "type": "uint256"
        },
        {
          "indexed": false,
          "internalType": "address",
          "name": "user",
          "type": "address"
        }
      ],
      "name": "ImageLiked",
      "type": "event"
    },
    {
      "anonymous": false,
      "inputs": [
        {
          "indexed": false,
          "internalType": "uint256",
          "name": "id",
          "type": "uint256"
        },
        {
          "indexed": false,
          "internalType": "address",
          "name": "author",
          "type": "address"
        },
        {
          "indexed": false,
          "internalType": "string",
          "name": "IPFShash",
          "type": "string"
        },
        {
          "indexed": false,
          "internalType": "string",
          "name": "description",
          "type": "string"
        }
      ],
      "name": "ImageUploaded",
      "type": "event"
    },
    {
      "inputs": [],
      "name": "imageId",
      "outputs": [
        {
          "internalType": "uint256",
          "name": "",
          "type": "uint256"
        }
      ],
      "stateMutability": "view",
      "type": "function",
      "constant": true
    },
    {
      "inputs": [
        {
          "internalType": "uint256",
          "name": "",
          "type": "uint256"
        }
      ],
      "name": "images",
      "outputs": [
        {
          "internalType": "address",
          "name": "author",
          "type": "address"
        },
        {
          "internalType": "string",
          "name": "IPFShash",
          "type": "string"
        },
        {
          "internalType": "string",
          "name": "description",
          "type": "string"
        },
        {
          "internalType": "uint256",
          "name": "likes",
          "type": "uint256"
        }
      ],
      "stateMutability": "view",
      "type": "function",
      "constant": true
    },
    {
      "inputs": [
        {
          "internalType": "uint256",
          "name": "",
          "type": "uint256"
        }
      ],
      "name": "topImages",
      "outputs": [
        {
          "internalType": "uint256",
          "name": "",
          "type": "uint256"
        }
      ],
      "stateMutability": "view",
      "type": "function",
      "constant": true
    },
    {
      "inputs": [
        {
          "internalType": "address",
          "name": "",
          "type": "address"
        }
      ],
      "name": "users",
      "outputs": [
        {
          "internalType": "uint256",
          "name": "likedTimestamps",
          "type": "uint256"
        },
        {
          "internalType": "uint256",
          "name": "likedCount",
          "type": "uint256"
        }
      ],
      "stateMutability": "view",
      "type": "function",
      "constant": true
    },
    {
      "inputs": [
        {
          "internalType": "string",
          "name": "_IPFShash",
          "type": "string"
        },
        {
          "internalType": "string",
          "name": "_description",
          "type": "string"
        }
      ],
      "name": "uploadImage",
      "outputs": [],
      "stateMutability": "nonpayable",
      "type": "function"
    },
    {
      "inputs": [
        {
          "internalType": "uint256",
          "name": "_imageId",
          "type": "uint256"
        }
      ],
      "name": "likeImage",
      "outputs": [],
      "stateMutability": "nonpayable",
      "type": "function"
    },
    {
      "inputs": [],
      "name": "withdrawYield",
      "outputs": [],
      "stateMutability": "nonpayable",
      "type": "function"
    },
    {
      "inputs": [],
      "name": "calculateYield",
      "outputs": [
        {
          "internalType": "uint256",
          "name": "",
          "type": "uint256"
        },
        {
          "internalType": "uint256",
          "name": "",
          "type": "uint256"
        }
      ],
      "stateMutability": "view",
      "type": "function",
      "constant": true
    }
  ],
  "bytecode": "0x608060405234801561001057600080fd5b506040516119693803806119698339818101604052602081101561003357600080fd5b810190808051906020019092919050505080600160006101000a81548173ffffffffffffffffffffffffffffffffffffffff021916908373ffffffffffffffffffffffffffffffffffffffff160217905550506118d4806100956000396000f3fe608060405234801561001057600080fd5b50600436106100885760003560e01c8063a91b83141161005b578063a91b83141461028a578063e507a8a414610358578063ef3f7dd514610362578063f0e2e50b1461038057610088565b80631ce5d3dd1461008d57806342bf1901146100cf57806384856482146100f4578063a87430ba1461022b575b600080fd5b6100b9600480360360208110156100a357600080fd5b81019080803590602001909291905050506103ae565b6040518082815260200191505060405180910390f35b6100d76103d2565b604051808381526020018281526020019250505060405180910390f35b6101206004803603602081101561010a57600080fd5b81019080803590602001909291905050506105bb565b604051808573ffffffffffffffffffffffffffffffffffffffff1681526020018060200180602001848152602001838103835286818151815260200191508051906020019080838360005b8381101561018657808201518184015260208101905061016b565b50505050905090810190601f1680156101b35780820380516001836020036101000a031916815260200191505b50838103825285818151815260200191508051906020019080838360005b838110156101ec5780820151818401526020810190506101d1565b50505050905090810190601f1680156102195780820380516001836020036101000a031916815260200191505b50965050505050505060405180910390f35b61026d6004803603602081101561024157600080fd5b81019080803573ffffffffffffffffffffffffffffffffffffffff16906020019092919050505061073b565b604051808381526020018281526020019250505060405180910390f35b610356600480360360408110156102a057600080fd5b81019080803590602001906401000000008111156102bd57600080fd5b8201836020820111156102cf57600080fd5b803590602001918460018302840111640100000000831117156102f157600080fd5b90919293919293908035906020019064010000000081111561031257600080fd5b82018360208201111561032457600080fd5b8035906020019184600183028401116401000000008311171561034657600080fd5b909192939192939050505061075f565b005b610360610af6565b005b61036a610d32565b6040518082815260200191505060405180910390f35b6103ac6004803603602081101561039657600080fd5b8101908080359060200190929190505050610d38565b005b600481815481106103be57600080fd5b906000526020600020016000915090505481565b6000806000600260003373ffffffffffffffffffffffffffffffffffffffff1673ffffffffffffffffffffffffffffffffffffffff16815260200190815260200160002090506000816001015411156105ae576000610442826001015483600001546114b690919063ffffffff16565b9050600061046c600f61045e844261150090919063ffffffff16565b6114b690919063ffffffff16565b9050600080670de0b6b3a764000090506000633b9aca009050600060089050600085111561059c57600285106105715782935060005b6104b582876114b690919063ffffffff16565b811015610500576104da60028303840a83633baa0c400a6114b690919063ffffffff16565b850294506104f184866114b690919063ffffffff16565b945080806001019150506104a2565b50600081868161050c57fe5b0690506002811061053e5761053560028203840a82633baa0c400a6114b690919063ffffffff16565b85029450610556565b6001811415610555578281633baa0c400a02850294505b5b61056984866114b690919063ffffffff16565b945050610587565b6001851415610586578185633baa0c400a0293505b5b86600101548402935082876001015402840393505b838598509850505050505050506105b7565b60008092509250505b9091565b60036020528060005260406000206000915090508060000160009054906101000a900473ffffffffffffffffffffffffffffffffffffffff1690806001018054600181600116156101000203166002900480601f01602080910402602001604051908101604052809291908181526020018280546001816001161561010002031660029004801561068d5780601f106106625761010080835404028352916020019161068d565b820191906000526020600020905b81548152906001019060200180831161067057829003601f168201915b505050505090806002018054600181600116156101000203166002900480601f01602080910402602001604051908101604052809291908181526020018280546001816001161561010002031660029004801561072b5780601f106107005761010080835404028352916020019161072b565b820191906000526020600020905b81548152906001019060200180831161070e57829003601f168201915b5050505050908060030154905084565b60026020528060005260406000206000915090508060000154908060010154905082565b603c8484905011156107d9576040517f08c379a00000000000000000000000000000000000000000000000000000000081526004018080602001828103825260188152602001807f49504653484153485f4c454e4754485f4f564552464c4f57000000000000000081525060200191505060405180910390fd5b6050828290501115610853576040517f08c379a000000000000000000000000000000000000000000000000000000000815260040180806020018281038252601b8152602001807f4445534352495054494f4e5f4c454e4754485f4f564552464c4f57000000000081525060200191505060405180910390fd5b600260003373ffffffffffffffffffffffffffffffffffffffff1673ffffffffffffffffffffffffffffffffffffffff168152602001908152602001600020600201600054908060018154018082558091505060019003906000526020600020016000909190919091505560405180608001604052803373ffffffffffffffffffffffffffffffffffffffff16815260200185858080601f016020809104026020016040519081016040528093929190818152602001838380828437600081840152601f19601f82011690508083019250505050505050815260200183838080601f016020809104026020016040519081016040528093929190818152602001838380828437600081840152601f19601f8201169050808301925050505050505081526020016000815250600360008054815260200190815260200160002060008201518160000160006101000a81548173ffffffffffffffffffffffffffffffffffffffff021916908373ffffffffffffffffffffffffffffffffffffffff16021790555060208201518160010190805190602001906109f59291906117f3565b506040820151816002019080519060200190610a129291906117f3565b50606082015181600301559050507f8bdd4e673c649a31e49968c7770bb72a7fcd31252322145f9b734f8b6bbdd6566000543386868686604051808781526020018673ffffffffffffffffffffffffffffffffffffffff16815260200180602001806020018381038352878782818152602001925080828437600081840152601f19601f8201169050808301925050508381038252858582818152602001925080828437600081840152601f19601f8201169050808301925050509850505050505050505060405180910390a1600080815480929190600101919050555050505050565b600080610b016103d2565b91509150600082148015610b155750600081145b15610b88576040517f08c379a000000000000000000000000000000000000000000000000000000000815260040180806020018281038252600f8152602001807f4e4f5f4c494b45445f494d41474553000000000000000000000000000000000081525060200191505060405180910390fd5b600082148015610b99575060008114155b15610c0c576040517f08c379a00000000000000000000000000000000000000000000000000000000081526004018080602001828103825260088152602001807f4e4f5f5949454c4400000000000000000000000000000000000000000000000081525060200191505060405180910390fd5b6000600260003373ffffffffffffffffffffffffffffffffffffffff1673ffffffffffffffffffffffffffffffffffffffff16815260200190815260200160002090506000600f610c66844261150090919063ffffffff16565b81610c6d57fe5b0690508042038260010154028260000181905550600160009054906101000a900473ffffffffffffffffffffffffffffffffffffffff1673ffffffffffffffffffffffffffffffffffffffff166340c10f1933866040518363ffffffff1660e01b8152600401808373ffffffffffffffffffffffffffffffffffffffff16815260200182815260200192505050600060405180830381600087803b158015610d1457600080fd5b505af1158015610d28573d6000803e3d6000fd5b5050505050505050565b60005481565b6000548110610daf576040517f08c379a000000000000000000000000000000000000000000000000000000000815260040180806020018281038252600b8152602001807f4e4f5f49445f494d41474500000000000000000000000000000000000000000081525060200191505060405180910390fd5b670de0b6b3a7640000600160009054906101000a900473ffffffffffffffffffffffffffffffffffffffff1673ffffffffffffffffffffffffffffffffffffffff166370a08231336040518263ffffffff1660e01b8152600401808273ffffffffffffffffffffffffffffffffffffffff16815260200191505060206040518083038186803b158015610e4157600080fd5b505afa158015610e55573d6000803e3d6000fd5b505050506040513d6020811015610e6b57600080fd5b81019080805190602001909291905050501015610ef0576040517f08c379a00000000000000000000000000000000000000000000000000000000081526004018080602001828103825260108152602001807f4e4f5f544f4b454e5f42414c414e43450000000000000000000000000000000081525060200191505060405180910390fd5b670de0b6b3a7640000600160009054906101000a900473ffffffffffffffffffffffffffffffffffffffff1673ffffffffffffffffffffffffffffffffffffffff1663dd62ed3e33306040518363ffffffff1660e01b8152600401808373ffffffffffffffffffffffffffffffffffffffff1681526020018273ffffffffffffffffffffffffffffffffffffffff1681526020019250505060206040518083038186803b158015610fa057600080fd5b505afa158015610fb4573d6000803e3d6000fd5b505050506040513d6020811015610fca57600080fd5b8101908080519060200190929190505050101561104f576040517f08c379a00000000000000000000000000000000000000000000000000000000081526004018080602001828103825260128152602001807f4e4f5f544f4b454e5f414c4c4f57414e4345000000000000000000000000000081525060200191505060405180910390fd5b60001515600260003373ffffffffffffffffffffffffffffffffffffffff1673ffffffffffffffffffffffffffffffffffffffff168152602001908152602001600020600301600083815260200190815260200160002060009054906101000a900460ff16151514611129576040517f08c379a000000000000000000000000000000000000000000000000000000000815260040180806020018281038252600b8152602001807f494d4147455f4c494b454400000000000000000000000000000000000000000081525060200191505060405180910390fd5b600160009054906101000a900473ffffffffffffffffffffffffffffffffffffffff1673ffffffffffffffffffffffffffffffffffffffff166323b872dd336003600085815260200190815260200160002060000160009054906101000a900473ffffffffffffffffffffffffffffffffffffffff166111c267016345785d8a0000670de0b6b3a764000061150090919063ffffffff16565b6040518463ffffffff1660e01b8152600401808473ffffffffffffffffffffffffffffffffffffffff1681526020018373ffffffffffffffffffffffffffffffffffffffff1681526020018281526020019350505050602060405180830381600087803b15801561123257600080fd5b505af1158015611246573d6000803e3d6000fd5b505050506040513d602081101561125c57600080fd5b810190808051906020019092919050505050600160009054906101000a900473ffffffffffffffffffffffffffffffffffffffff1673ffffffffffffffffffffffffffffffffffffffff16639dc29fac3367016345785d8a00006040518363ffffffff1660e01b8152600401808373ffffffffffffffffffffffffffffffffffffffff16815260200182815260200192505050600060405180830381600087803b15801561130957600080fd5b505af115801561131d573d6000803e3d6000fd5b505050506001600260003373ffffffffffffffffffffffffffffffffffffffff1673ffffffffffffffffffffffffffffffffffffffff168152602001908152602001600020600301600083815260200190815260200160002060006101000a81548160ff021916908315150217905550600260003373ffffffffffffffffffffffffffffffffffffffff1673ffffffffffffffffffffffffffffffffffffffff1681526020019081526020016000206001016000815480929190600101919050555042600260003373ffffffffffffffffffffffffffffffffffffffff1673ffffffffffffffffffffffffffffffffffffffff1681526020019081526020016000206000016000828254019250508190555060036000828152602001908152602001600020600301600081548092919060010191905055507f49562164a49dfb5b565ca84303f8d9f230c48aa665035838d26ffd38522a69798133604051808381526020018273ffffffffffffffffffffffffffffffffffffffff1681526020019250505060405180910390a16114b38161154a565b50565b60006114f883836040518060400160405280601a81526020017f536166654d6174683a206469766973696f6e206279207a65726f00000000000081525061166d565b905092915050565b600061154283836040518060400160405280601e81526020017f536166654d6174683a207375627472616374696f6e206f766572666c6f770000815250611733565b905092915050565b600a600480549050101561158657600481908060018154018082558091505060019003906000526020600020016000909190919091505561166a565b60006003600083815260200190815260200160002060030154905060055481106116685760006003600060046000815481106115be57fe5b90600052602060002001548152602001908152602001600020600301549050600080600190505b600480549050811015611641576000600360006004848154811061160557fe5b9060005260206000200154815260200190815260200160002060030154905083811015611633578093508192505b5080806001019150506115e5565b50836004828154811061165057fe5b90600052602060002001819055508160058190555050505b505b50565b60008083118290611719576040517f08c379a00000000000000000000000000000000000000000000000000000000081526004018080602001828103825283818151815260200191508051906020019080838360005b838110156116de5780820151818401526020810190506116c3565b50505050905090810190601f16801561170b5780820380516001836020036101000a031916815260200191505b509250505060405180910390fd5b50600083858161172557fe5b049050809150509392505050565b60008383111582906117e0576040517f08c379a00000000000000000000000000000000000000000000000000000000081526004018080602001828103825283818151815260200191508051906020019080838360005b838110156117a557808201518184015260208101905061178a565b50505050905090810190601f1680156117d25780820380516001836020036101000a031916815260200191505b509250505060405180910390fd5b5060008385039050809150509392505050565b828054600181600116156101000203166002900490600052602060002090601f0160209004810192826118295760008555611870565b82601f1061184257805160ff1916838001178555611870565b82800160010185558215611870579182015b8281111561186f578251825591602001919060010190611854565b5b50905061187d9190611881565b5090565b5b8082111561189a576000816000905550600101611882565b509056fea26469706673582212204e8a7d8051e5c9cde6c59f896f490444d76a0b56e0652688da53b26dedd25ead64736f6c63430007060033",
  "immutableReferences": {},
  "source": "// SPDX-License-Identifier: MIT\r\n\r\npragma solidity ^0.7.6;\r\n\r\nimport './LikeToken.sol';\r\nimport '@openzeppelin/contracts/math/SafeMath.sol';\r\n\r\ncontract LikeChain\r\n{\r\n    using SafeMath for uint;\r\n\r\n    uint constant YIELD_PERCENT = 1001000000; //1.001%\r\n    uint constant YIELD_INTERVAL = 15 seconds;\r\n    uint constant LIKE_VALUE = 1 ether;\r\n    uint constant FEE = 10 ** 17;\r\n    uint public imageId;\r\n\r\n    LikeToken likeToken;\r\n    mapping(address => User) public users;\r\n    mapping(uint => Image) public images;\r\n    uint[] public topImages;\r\n    uint topImagesMinimum;\r\n\r\n    struct User {\r\n        uint likedTimestamps;\r\n        uint likedCount;\r\n        uint[] images;\r\n        mapping(uint => bool) liked;\r\n    }\r\n\r\n    struct Image {\r\n        address author;\r\n        string IPFShash;\r\n        string description;\r\n        uint likes;\r\n    }\r\n\r\n    event ImageUploaded (\r\n        uint id,\r\n        address author,\r\n        string IPFShash,\r\n        string description\r\n    );\r\n\r\n    event ImageLiked (\r\n        uint id,\r\n        address user\r\n    );\r\n\r\n    constructor(address _likeToken)\r\n    {\r\n        likeToken = LikeToken(_likeToken);\r\n    }\r\n\r\n    function uploadImage(string calldata _IPFShash, string calldata _description) external\r\n    {\r\n        require(bytes(_IPFShash).length <= 60, 'IPFSHASH_LENGTH_OVERFLOW');\r\n        require(bytes(_description).length <= 80, 'DESCRIPTION_LENGTH_OVERFLOW');\r\n\r\n        users[msg.sender].images.push(imageId);\r\n        images[imageId] = Image(msg.sender, _IPFShash, _description, 0);\r\n        emit ImageUploaded(imageId, msg.sender, _IPFShash, _description);\r\n        imageId++;\r\n    }\r\n\r\n    function likeImage(uint _imageId) external\r\n    {\r\n        require(_imageId < imageId, 'NO_ID_IMAGE');\r\n        require(likeToken.balanceOf(msg.sender) >= LIKE_VALUE, 'NO_TOKEN_BALANCE');\r\n        require(likeToken.allowance(msg.sender, address(this)) >= LIKE_VALUE, 'NO_TOKEN_ALLOWANCE');\r\n        require(users[msg.sender].liked[_imageId] == false, 'IMAGE_LIKED');\r\n\r\n        likeToken.transferFrom(msg.sender, images[_imageId].author, LIKE_VALUE.sub(FEE));\r\n        likeToken.burn(msg.sender, FEE);\r\n\r\n        users[msg.sender].liked[_imageId] = true;\r\n        users[msg.sender].likedCount++;\r\n        users[msg.sender].likedTimestamps += block.timestamp;\r\n        images[_imageId].likes++;\r\n        \r\n        emit ImageLiked(_imageId, msg.sender);\r\n        _updateTopImages(_imageId);\r\n    }\r\n\r\n    function _updateTopImages(uint _imageId) private \r\n    {\r\n        if (topImages.length < 10) {\r\n            topImages.push(_imageId);\r\n        } else {\r\n            uint likes = images[_imageId].likes;\r\n            if (likes >= topImagesMinimum) {\r\n                uint min = images[topImages[0]].likes;\r\n                uint minIndex;\r\n                for (uint i = 1; i < topImages.length; i++) {\r\n                    uint currentLikes = images[topImages[i]].likes;\r\n                    if (currentLikes < min) {\r\n                        min = currentLikes;\r\n                        minIndex = i;\r\n                    }\r\n                }\r\n                topImages[minIndex] = _imageId;\r\n                topImagesMinimum = min;\r\n            }\r\n        }\r\n    }\r\n\r\n    function withdrawYield() external\r\n    {\r\n        (uint yield, uint avg) = calculateYield();\r\n        if (yield == 0 && avg == 0) revert('NO_LIKED_IMAGES');\r\n        if (yield == 0 && avg != 0) revert('NO_YIELD');\r\n\r\n        User storage user = users[msg.sender];\r\n        uint remainder = block.timestamp.sub(avg) % YIELD_INTERVAL;\r\n        user.likedTimestamps = user.likedCount * (block.timestamp - remainder);\r\n        likeToken.mint(msg.sender, yield);\r\n    }\r\n\r\n    function calculateYield() public view returns(uint, uint) \r\n    {\r\n        User storage user = users[msg.sender];\r\n        if (user.likedCount > 0) {\r\n            uint avg = user.likedTimestamps.div(user.likedCount);\r\n            uint intervalCount = block.timestamp.sub(avg).div(YIELD_INTERVAL);\r\n            uint yield = 0;\r\n            uint base = 1 ether;\r\n            uint divisor = 10 ** 9;\r\n            uint interval = 8;\r\n            if (intervalCount > 0) {\r\n                if (intervalCount >= 2) {\r\n                    yield = base;\r\n                    for (uint i = 0; i < intervalCount.div(interval); i++) {\r\n                        yield *= (YIELD_PERCENT ** interval).div(divisor ** (interval - 2));\r\n                        yield = yield.div(base);\r\n                    }\r\n                    uint remainder = intervalCount % interval;\r\n                    if (remainder >= 2) {\r\n                        yield *= (YIELD_PERCENT ** remainder).div(divisor ** (remainder - 2));\r\n                    } else if (remainder == 1) {\r\n                        yield *= YIELD_PERCENT ** remainder * divisor;\r\n                    }\r\n                    yield = yield.div(base);\r\n                } else if (intervalCount == 1) {\r\n                    yield = YIELD_PERCENT ** intervalCount * divisor;\r\n                }\r\n                yield *= user.likedCount;\r\n                yield -= user.likedCount * base;\r\n            }\r\n            return (yield, intervalCount);\r\n        } else {\r\n            return (0, 0);\r\n        }\r\n    }\r\n}",
  "sourcePath": "C:/Users/Moje/Desktop/dev/likechain/contracts/LikeChain.sol",
  "compiler": {
    "name": "solc",
    "version": "0.7.6+commit.7338295f.Emscripten.clang"
  },
  "schemaVersion": "3.3.3",
  "updatedAt": "2021-02-12T23:02:25.592Z",
  "networkType": "ethereum",
  "devdoc": {
    "kind": "dev",
    "methods": {},
    "version": 1
  },
  "userdoc": {
    "kind": "user",
    "methods": {},
    "version": 1
  }
}