{
  "contractName": "LikeChain",
  "abi": [
    {
      "inputs": [
        {
          "internalType": "address",
          "name": "_likeToken",
          "type": "address"
        }
      ],
      "stateMutability": "nonpayable",
      "type": "constructor"
    },
    {
      "anonymous": false,
      "inputs": [
        {
          "indexed": false,
          "internalType": "uint256",
          "name": "id",
          "type": "uint256"
        },
        {
          "indexed": false,
          "internalType": "address",
          "name": "user",
          "type": "address"
        }
      ],
      "name": "ImageLiked",
      "type": "event"
    },
    {
      "anonymous": false,
      "inputs": [
        {
          "indexed": false,
          "internalType": "uint256",
          "name": "id",
          "type": "uint256"
        },
        {
          "indexed": false,
          "internalType": "address",
          "name": "author",
          "type": "address"
        },
        {
          "indexed": false,
          "internalType": "string",
          "name": "IPFShash",
          "type": "string"
        },
        {
          "indexed": false,
          "internalType": "string",
          "name": "description",
          "type": "string"
        }
      ],
      "name": "ImageUploaded",
      "type": "event"
    },
    {
      "inputs": [],
      "name": "imageId",
      "outputs": [
        {
          "internalType": "uint256",
          "name": "",
          "type": "uint256"
        }
      ],
      "stateMutability": "view",
      "type": "function",
      "constant": true
    },
    {
      "inputs": [
        {
          "internalType": "uint256",
          "name": "",
          "type": "uint256"
        }
      ],
      "name": "images",
      "outputs": [
        {
          "internalType": "address",
          "name": "author",
          "type": "address"
        },
        {
          "internalType": "string",
          "name": "IPFShash",
          "type": "string"
        },
        {
          "internalType": "string",
          "name": "description",
          "type": "string"
        }
      ],
      "stateMutability": "view",
      "type": "function",
      "constant": true
    },
    {
      "inputs": [
        {
          "internalType": "uint256",
          "name": "",
          "type": "uint256"
        }
      ],
      "name": "topImages",
      "outputs": [
        {
          "internalType": "uint256",
          "name": "",
          "type": "uint256"
        }
      ],
      "stateMutability": "view",
      "type": "function",
      "constant": true
    },
    {
      "inputs": [
        {
          "internalType": "address",
          "name": "",
          "type": "address"
        }
      ],
      "name": "users",
      "outputs": [
        {
          "internalType": "uint256",
          "name": "likedTimestamps",
          "type": "uint256"
        },
        {
          "internalType": "uint256",
          "name": "likedCount",
          "type": "uint256"
        }
      ],
      "stateMutability": "view",
      "type": "function",
      "constant": true
    },
    {
      "inputs": [
        {
          "internalType": "string",
          "name": "_IPFShash",
          "type": "string"
        },
        {
          "internalType": "string",
          "name": "_description",
          "type": "string"
        }
      ],
      "name": "uploadImage",
      "outputs": [],
      "stateMutability": "nonpayable",
      "type": "function"
    },
    {
      "inputs": [
        {
          "internalType": "uint256",
          "name": "_imageId",
          "type": "uint256"
        }
      ],
      "name": "likeImage",
      "outputs": [],
      "stateMutability": "nonpayable",
      "type": "function"
    },
    {
      "inputs": [],
      "name": "withdrawYield",
      "outputs": [],
      "stateMutability": "nonpayable",
      "type": "function"
    },
    {
      "inputs": [],
      "name": "calculateYield",
      "outputs": [
        {
          "internalType": "uint256",
          "name": "",
          "type": "uint256"
        },
        {
          "internalType": "uint256",
          "name": "",
          "type": "uint256"
        }
      ],
      "stateMutability": "view",
      "type": "function",
      "constant": true
    }
  ],
  "bytecode": "0x608060405234801561001057600080fd5b50604051611a99380380611a998339818101604052602081101561003357600080fd5b810190808051906020019092919050505080600160006101000a81548173ffffffffffffffffffffffffffffffffffffffff021916908373ffffffffffffffffffffffffffffffffffffffff16021790555050611a04806100956000396000f3fe608060405234801561001057600080fd5b50600436106100885760003560e01c8063a91b83141161005b578063a91b831414610283578063e507a8a414610351578063ef3f7dd51461035b578063f0e2e50b1461037957610088565b80631ce5d3dd1461008d57806342bf1901146100cf57806384856482146100f4578063a87430ba14610224575b600080fd5b6100b9600480360360208110156100a357600080fd5b81019080803590602001909291905050506103a7565b6040518082815260200191505060405180910390f35b6100d76103cb565b604051808381526020018281526020019250505060405180910390f35b6101206004803603602081101561010a57600080fd5b81019080803590602001909291905050506105b4565b604051808473ffffffffffffffffffffffffffffffffffffffff1681526020018060200180602001838103835285818151815260200191508051906020019080838360005b83811015610180578082015181840152602081019050610165565b50505050905090810190601f1680156101ad5780820380516001836020036101000a031916815260200191505b50838103825284818151815260200191508051906020019080838360005b838110156101e65780820151818401526020810190506101cb565b50505050905090810190601f1680156102135780820380516001836020036101000a031916815260200191505b509550505050505060405180910390f35b6102666004803603602081101561023a57600080fd5b81019080803573ffffffffffffffffffffffffffffffffffffffff16906020019092919050505061072e565b604051808381526020018281526020019250505060405180910390f35b61034f6004803603604081101561029957600080fd5b81019080803590602001906401000000008111156102b657600080fd5b8201836020820111156102c857600080fd5b803590602001918460018302840111640100000000831117156102ea57600080fd5b90919293919293908035906020019064010000000081111561030b57600080fd5b82018360208201111561031d57600080fd5b8035906020019184600183028401116401000000008311171561033f57600080fd5b9091929391929390505050610752565b005b610359610b42565b005b610363610d7e565b6040518082815260200191505060405180910390f35b6103a56004803603602081101561038f57600080fd5b8101908080359060200190929190505050610d84565b005b600481815481106103b757600080fd5b906000526020600020016000915090505481565b6000806000600260003373ffffffffffffffffffffffffffffffffffffffff1673ffffffffffffffffffffffffffffffffffffffff16815260200190815260200160002090506000816001015411156105a757600061043b8260010154836000015461155390919063ffffffff16565b90506000610465600f610457844261159d90919063ffffffff16565b61155390919063ffffffff16565b9050600080670de0b6b3a764000090506000633b9aca0090506000600890506000851115610595576002851061056a5782935060005b6104ae828761155390919063ffffffff16565b8110156104f9576104d360028303840a83633baa0c400a61155390919063ffffffff16565b850294506104ea848661155390919063ffffffff16565b9450808060010191505061049b565b50600081868161050557fe5b069050600281106105375761052e60028203840a82633baa0c400a61155390919063ffffffff16565b8502945061054f565b600181141561054e578281633baa0c400a02850294505b5b610562848661155390919063ffffffff16565b945050610580565b600185141561057f578185633baa0c400a0293505b5b86600101548402935082876001015402840393505b838598509850505050505050506105b0565b60008092509250505b9091565b60036020528060005260406000206000915090508060000160009054906101000a900473ffffffffffffffffffffffffffffffffffffffff1690806001018054600181600116156101000203166002900480601f0160208091040260200160405190810160405280929190818152602001828054600181600116156101000203166002900480156106865780601f1061065b57610100808354040283529160200191610686565b820191906000526020600020905b81548152906001019060200180831161066957829003601f168201915b505050505090806002018054600181600116156101000203166002900480601f0160208091040260200160405190810160405280929190818152602001828054600181600116156101000203166002900480156107245780601f106106f957610100808354040283529160200191610724565b820191906000526020600020905b81548152906001019060200180831161070757829003601f168201915b5050505050905083565b60026020528060005260406000206000915090508060000154908060010154905082565b603c8484905011156107cc576040517f08c379a00000000000000000000000000000000000000000000000000000000081526004018080602001828103825260188152602001807f49504653484153485f4c454e4754485f4f564552464c4f57000000000000000081525060200191505060405180910390fd5b6064828290501115610846576040517f08c379a000000000000000000000000000000000000000000000000000000000815260040180806020018281038252601b8152602001807f4445534352495054494f4e5f4c454e4754485f4f564552464c4f57000000000081525060200191505060405180910390fd5b600260003373ffffffffffffffffffffffffffffffffffffffff1673ffffffffffffffffffffffffffffffffffffffff168152602001908152602001600020600201600054908060018154018082558091505060019003906000526020600020016000909190919091505560405180608001604052803373ffffffffffffffffffffffffffffffffffffffff16815260200185858080601f016020809104026020016040519081016040528093929190818152602001838380828437600081840152601f19601f82011690508083019250505050505050815260200183838080601f016020809104026020016040519081016040528093929190818152602001838380828437600081840152601f19601f820116905080830192505050505050508152602001600067ffffffffffffffff8111801561098457600080fd5b506040519080825280602002602001820160405280156109b35781602001602082028036833780820191505090505b50815250600360008054815260200190815260200160002060008201518160000160006101000a81548173ffffffffffffffffffffffffffffffffffffffff021916908373ffffffffffffffffffffffffffffffffffffffff1602179055506020820151816001019080519060200190610a2e929190611899565b506040820151816002019080519060200190610a4b929190611899565b506060820151816003019080519060200190610a68929190611927565b509050507f8bdd4e673c649a31e49968c7770bb72a7fcd31252322145f9b734f8b6bbdd6566000543386868686604051808781526020018673ffffffffffffffffffffffffffffffffffffffff16815260200180602001806020018381038352878782818152602001925080828437600081840152601f19601f8201169050808301925050508381038252858582818152602001925080828437600081840152601f19601f8201169050808301925050509850505050505050505060405180910390a1600080815480929190600101919050555050505050565b600080610b4d6103cb565b91509150600082148015610b615750600081145b15610bd4576040517f08c379a000000000000000000000000000000000000000000000000000000000815260040180806020018281038252600f8152602001807f4e4f5f4c494b45445f494d41474553000000000000000000000000000000000081525060200191505060405180910390fd5b600082148015610be5575060008114155b15610c58576040517f08c379a00000000000000000000000000000000000000000000000000000000081526004018080602001828103825260088152602001807f4e4f5f5949454c4400000000000000000000000000000000000000000000000081525060200191505060405180910390fd5b6000600260003373ffffffffffffffffffffffffffffffffffffffff1673ffffffffffffffffffffffffffffffffffffffff16815260200190815260200160002090506000600f610cb2844261159d90919063ffffffff16565b81610cb957fe5b0690508042038260010154028260000181905550600160009054906101000a900473ffffffffffffffffffffffffffffffffffffffff1673ffffffffffffffffffffffffffffffffffffffff166340c10f1933866040518363ffffffff1660e01b8152600401808373ffffffffffffffffffffffffffffffffffffffff16815260200182815260200192505050600060405180830381600087803b158015610d6057600080fd5b505af1158015610d74573d6000803e3d6000fd5b5050505050505050565b60005481565b6000548110610dfb576040517f08c379a000000000000000000000000000000000000000000000000000000000815260040180806020018281038252600b8152602001807f4e4f5f49445f494d41474500000000000000000000000000000000000000000081525060200191505060405180910390fd5b670de0b6b3a7640000600160009054906101000a900473ffffffffffffffffffffffffffffffffffffffff1673ffffffffffffffffffffffffffffffffffffffff166370a08231336040518263ffffffff1660e01b8152600401808273ffffffffffffffffffffffffffffffffffffffff16815260200191505060206040518083038186803b158015610e8d57600080fd5b505afa158015610ea1573d6000803e3d6000fd5b505050506040513d6020811015610eb757600080fd5b81019080805190602001909291905050501015610f3c576040517f08c379a00000000000000000000000000000000000000000000000000000000081526004018080602001828103825260108152602001807f4e4f5f544f4b454e5f42414c414e43450000000000000000000000000000000081525060200191505060405180910390fd5b670de0b6b3a7640000600160009054906101000a900473ffffffffffffffffffffffffffffffffffffffff1673ffffffffffffffffffffffffffffffffffffffff1663dd62ed3e33306040518363ffffffff1660e01b8152600401808373ffffffffffffffffffffffffffffffffffffffff1681526020018273ffffffffffffffffffffffffffffffffffffffff1681526020019250505060206040518083038186803b158015610fec57600080fd5b505afa158015611000573d6000803e3d6000fd5b505050506040513d602081101561101657600080fd5b8101908080519060200190929190505050101561109b576040517f08c379a00000000000000000000000000000000000000000000000000000000081526004018080602001828103825260128152602001807f4e4f5f544f4b454e5f414c4c4f57414e4345000000000000000000000000000081525060200191505060405180910390fd5b60001515600260003373ffffffffffffffffffffffffffffffffffffffff1673ffffffffffffffffffffffffffffffffffffffff168152602001908152602001600020600301600083815260200190815260200160002060009054906101000a900460ff16151514611175576040517f08c379a000000000000000000000000000000000000000000000000000000000815260040180806020018281038252600b8152602001807f494d4147455f4c494b454400000000000000000000000000000000000000000081525060200191505060405180910390fd5b600160009054906101000a900473ffffffffffffffffffffffffffffffffffffffff1673ffffffffffffffffffffffffffffffffffffffff166323b872dd336003600085815260200190815260200160002060000160009054906101000a900473ffffffffffffffffffffffffffffffffffffffff1661120e67016345785d8a0000670de0b6b3a764000061159d90919063ffffffff16565b6040518463ffffffff1660e01b8152600401808473ffffffffffffffffffffffffffffffffffffffff1681526020018373ffffffffffffffffffffffffffffffffffffffff1681526020018281526020019350505050602060405180830381600087803b15801561127e57600080fd5b505af1158015611292573d6000803e3d6000fd5b505050506040513d60208110156112a857600080fd5b810190808051906020019092919050505050600160009054906101000a900473ffffffffffffffffffffffffffffffffffffffff1673ffffffffffffffffffffffffffffffffffffffff16639dc29fac3367016345785d8a00006040518363ffffffff1660e01b8152600401808373ffffffffffffffffffffffffffffffffffffffff16815260200182815260200192505050600060405180830381600087803b15801561135557600080fd5b505af1158015611369573d6000803e3d6000fd5b505050506001600260003373ffffffffffffffffffffffffffffffffffffffff1673ffffffffffffffffffffffffffffffffffffffff168152602001908152602001600020600301600083815260200190815260200160002060006101000a81548160ff021916908315150217905550600260003373ffffffffffffffffffffffffffffffffffffffff1673ffffffffffffffffffffffffffffffffffffffff1681526020019081526020016000206001016000815480929190600101919050555042600260003373ffffffffffffffffffffffffffffffffffffffff1673ffffffffffffffffffffffffffffffffffffffff1681526020019081526020016000206000016000828254019250508190555060036000828152602001908152602001600020600301339080600181540180825580915050600190039060005260206000200160009091909190916101000a81548173ffffffffffffffffffffffffffffffffffffffff021916908373ffffffffffffffffffffffffffffffffffffffff1602179055507f49562164a49dfb5b565ca84303f8d9f230c48aa665035838d26ffd38522a69798133604051808381526020018273ffffffffffffffffffffffffffffffffffffffff1681526020019250505060405180910390a1611550816115e7565b50565b600061159583836040518060400160405280601a81526020017f536166654d6174683a206469766973696f6e206279207a65726f000000000000815250611713565b905092915050565b60006115df83836040518060400160405280601e81526020017f536166654d6174683a207375627472616374696f6e206f766572666c6f7700008152506117d9565b905092915050565b600a6004805490501015611623576004819080600181540180825580915050600190039060005260206000200160009091909190915055611710565b600060036000838152602001908152602001600020600301805490509050600554811061170e57600060036000600460008154811061165e57fe5b90600052602060002001548152602001908152602001600020600301805490509050600080600190505b6004805490508110156116e757600060036000600484815481106116a857fe5b90600052602060002001548152602001908152602001600020600301805490509050838110156116d9578093508192505b508080600101915050611688565b5083600482815481106116f657fe5b90600052602060002001819055508160058190555050505b505b50565b600080831182906117bf576040517f08c379a00000000000000000000000000000000000000000000000000000000081526004018080602001828103825283818151815260200191508051906020019080838360005b83811015611784578082015181840152602081019050611769565b50505050905090810190601f1680156117b15780820380516001836020036101000a031916815260200191505b509250505060405180910390fd5b5060008385816117cb57fe5b049050809150509392505050565b6000838311158290611886576040517f08c379a00000000000000000000000000000000000000000000000000000000081526004018080602001828103825283818151815260200191508051906020019080838360005b8381101561184b578082015181840152602081019050611830565b50505050905090810190601f1680156118785780820380516001836020036101000a031916815260200191505b509250505060405180910390fd5b5060008385039050809150509392505050565b828054600181600116156101000203166002900490600052602060002090601f0160209004810192826118cf5760008555611916565b82601f106118e857805160ff1916838001178555611916565b82800160010185558215611916579182015b828111156119155782518255916020019190600101906118fa565b5b50905061192391906119b1565b5090565b8280548282559060005260206000209081019282156119a0579160200282015b8281111561199f5782518260006101000a81548173ffffffffffffffffffffffffffffffffffffffff021916908373ffffffffffffffffffffffffffffffffffffffff16021790555091602001919060010190611947565b5b5090506119ad91906119b1565b5090565b5b808211156119ca5760008160009055506001016119b2565b509056fea26469706673582212200fd363b1cf67fb693805813f8366179aeb198f34099a87973ab4580ffb35359964736f6c63430007060033",
  "immutableReferences": {},
  "source": "// SPDX-License-Identifier: MIT\r\n\r\npragma solidity ^0.7.6;\r\n\r\nimport './LikeToken.sol';\r\nimport '@openzeppelin/contracts/math/SafeMath.sol';\r\n\r\ncontract LikeChain\r\n{\r\n    using SafeMath for uint;\r\n\r\n    uint constant YIELD_PERCENT = 1001000000; //1.001%\r\n    uint constant YIELD_INTERVAL = 15 seconds;\r\n    uint constant LIKE_VALUE = 1 ether;\r\n    uint constant FEE = 10 ** 17;\r\n    uint public imageId;\r\n\r\n    LikeToken likeToken;\r\n    mapping(address => User) public users;\r\n    mapping(uint => Image) public images;\r\n    uint[] public topImages;\r\n    uint topImagesMinimum;\r\n\r\n    struct User {\r\n        uint likedTimestamps;\r\n        uint likedCount;\r\n        uint[] images;\r\n        mapping(uint => bool) liked;\r\n    }\r\n\r\n    struct Image {\r\n        address author;\r\n        string IPFShash;\r\n        string description;\r\n        address[] likes;\r\n    }\r\n\r\n    event ImageUploaded (\r\n        uint id,\r\n        address author,\r\n        string IPFShash,\r\n        string description\r\n    );\r\n\r\n    event ImageLiked (\r\n        uint id,\r\n        address user\r\n    );\r\n\r\n    constructor(address _likeToken)\r\n    {\r\n        likeToken = LikeToken(_likeToken);\r\n    }\r\n\r\n    function uploadImage(string calldata _IPFShash, string calldata _description) external\r\n    {\r\n        require(bytes(_IPFShash).length <= 60, 'IPFSHASH_LENGTH_OVERFLOW');\r\n        require(bytes(_description).length <= 100, 'DESCRIPTION_LENGTH_OVERFLOW');\r\n\r\n        users[msg.sender].images.push(imageId);\r\n        images[imageId] = Image(msg.sender, _IPFShash, _description, new address[](0));\r\n        emit ImageUploaded(imageId, msg.sender, _IPFShash, _description);\r\n        imageId++;\r\n    }\r\n\r\n    function likeImage(uint _imageId) external\r\n    {\r\n        require(_imageId < imageId, 'NO_ID_IMAGE');\r\n        require(likeToken.balanceOf(msg.sender) >= LIKE_VALUE, 'NO_TOKEN_BALANCE');\r\n        require(likeToken.allowance(msg.sender, address(this)) >= LIKE_VALUE, 'NO_TOKEN_ALLOWANCE');\r\n        require(users[msg.sender].liked[_imageId] == false, 'IMAGE_LIKED');\r\n\r\n        likeToken.transferFrom(msg.sender, images[_imageId].author, LIKE_VALUE.sub(FEE));\r\n        likeToken.burn(msg.sender, FEE);\r\n\r\n        users[msg.sender].liked[_imageId] = true;\r\n        users[msg.sender].likedCount++;\r\n        users[msg.sender].likedTimestamps += block.timestamp;\r\n        images[_imageId].likes.push(msg.sender);\r\n        \r\n        emit ImageLiked(_imageId, msg.sender);\r\n        _updateTopImages(_imageId);\r\n    }\r\n\r\n    function _updateTopImages(uint _imageId) private \r\n    {\r\n        if (topImages.length < 10) {\r\n            topImages.push(_imageId);\r\n        } else {\r\n            uint likes = images[_imageId].likes.length;\r\n            if (likes >= topImagesMinimum) {\r\n                uint min = images[topImages[0]].likes.length;\r\n                uint minIndex;\r\n                for (uint i = 1; i < topImages.length; i++) {\r\n                    uint currentLikes = images[topImages[i]].likes.length;\r\n                    if (currentLikes < min) {\r\n                        min = currentLikes;\r\n                        minIndex = i;\r\n                    }\r\n                }\r\n                topImages[minIndex] = _imageId;\r\n                topImagesMinimum = min;\r\n            }\r\n        }\r\n    }\r\n\r\n    function withdrawYield() external\r\n    {\r\n        (uint yield, uint avg) = calculateYield();\r\n        if (yield == 0 && avg == 0) revert('NO_LIKED_IMAGES');\r\n        if (yield == 0 && avg != 0) revert('NO_YIELD');\r\n\r\n        User storage user = users[msg.sender];\r\n        uint remainder = block.timestamp.sub(avg) % YIELD_INTERVAL;\r\n        user.likedTimestamps = user.likedCount * (block.timestamp - remainder);\r\n        likeToken.mint(msg.sender, yield);\r\n    }\r\n\r\n    function calculateYield() public view returns(uint, uint) \r\n    {\r\n        User storage user = users[msg.sender];\r\n        if (user.likedCount > 0) {\r\n            uint avg = user.likedTimestamps.div(user.likedCount);\r\n            uint intervalCount = block.timestamp.sub(avg).div(YIELD_INTERVAL);\r\n            uint yield = 0;\r\n            uint base = 1 ether;\r\n            uint divisor = 10 ** 9;\r\n            uint interval = 8;\r\n            if (intervalCount > 0) {\r\n                if (intervalCount >= 2) {\r\n                    yield = base;\r\n                    for (uint i = 0; i < intervalCount.div(interval); i++) {\r\n                        yield *= (YIELD_PERCENT ** interval).div(divisor ** (interval - 2));\r\n                        yield = yield.div(base);\r\n                    }\r\n                    uint remainder = intervalCount % interval;\r\n                    if (remainder >= 2) {\r\n                        yield *= (YIELD_PERCENT ** remainder).div(divisor ** (remainder - 2));\r\n                    } else if (remainder == 1) {\r\n                        yield *= YIELD_PERCENT ** remainder * divisor;\r\n                    }\r\n                    yield = yield.div(base);\r\n                } else if (intervalCount == 1) {\r\n                    yield = YIELD_PERCENT ** intervalCount * divisor;\r\n                }\r\n                yield *= user.likedCount;\r\n                yield -= user.likedCount * base;\r\n            }\r\n            return (yield, intervalCount);\r\n        } else {\r\n            return (0, 0);\r\n        }\r\n    }\r\n}",
  "sourcePath": "C:/Users/Moje/Desktop/dev/likechain/contracts/LikeChain.sol",
  "compiler": {
    "name": "solc",
    "version": "0.7.6+commit.7338295f.Emscripten.clang"
  },
  "schemaVersion": "3.3.3",
  "updatedAt": "2021-02-12T16:37:04.559Z",
  "networkType": "ethereum",
  "devdoc": {
    "kind": "dev",
    "methods": {},
    "version": 1
  },
  "userdoc": {
    "kind": "user",
    "methods": {},
    "version": 1
  }
}