{
  "contractName": "LikeChain",
  "abi": [
    {
      "inputs": [
        {
          "internalType": "address",
          "name": "_likeToken",
          "type": "address"
        }
      ],
      "stateMutability": "nonpayable",
      "type": "constructor"
    },
    {
      "anonymous": false,
      "inputs": [
        {
          "indexed": false,
          "internalType": "uint256",
          "name": "id",
          "type": "uint256"
        },
        {
          "indexed": false,
          "internalType": "address",
          "name": "author",
          "type": "address"
        },
        {
          "indexed": false,
          "internalType": "string",
          "name": "IPFShash",
          "type": "string"
        },
        {
          "indexed": false,
          "internalType": "string",
          "name": "description",
          "type": "string"
        }
      ],
      "name": "ImageCreated",
      "type": "event"
    },
    {
      "anonymous": false,
      "inputs": [
        {
          "indexed": false,
          "internalType": "uint256",
          "name": "id",
          "type": "uint256"
        },
        {
          "indexed": false,
          "internalType": "address",
          "name": "user",
          "type": "address"
        }
      ],
      "name": "ImageLiked",
      "type": "event"
    },
    {
      "inputs": [],
      "name": "imageId",
      "outputs": [
        {
          "internalType": "uint256",
          "name": "",
          "type": "uint256"
        }
      ],
      "stateMutability": "view",
      "type": "function",
      "constant": true
    },
    {
      "inputs": [
        {
          "internalType": "uint256",
          "name": "",
          "type": "uint256"
        }
      ],
      "name": "images",
      "outputs": [
        {
          "internalType": "address",
          "name": "author",
          "type": "address"
        },
        {
          "internalType": "string",
          "name": "IPFShash",
          "type": "string"
        },
        {
          "internalType": "string",
          "name": "description",
          "type": "string"
        }
      ],
      "stateMutability": "view",
      "type": "function",
      "constant": true
    },
    {
      "inputs": [
        {
          "internalType": "address",
          "name": "",
          "type": "address"
        }
      ],
      "name": "users",
      "outputs": [
        {
          "internalType": "uint256",
          "name": "likedTimestamps",
          "type": "uint256"
        },
        {
          "internalType": "uint256",
          "name": "likedCount",
          "type": "uint256"
        }
      ],
      "stateMutability": "view",
      "type": "function",
      "constant": true
    },
    {
      "inputs": [
        {
          "internalType": "string",
          "name": "_IPFShash",
          "type": "string"
        },
        {
          "internalType": "string",
          "name": "_description",
          "type": "string"
        }
      ],
      "name": "uploadImage",
      "outputs": [],
      "stateMutability": "nonpayable",
      "type": "function"
    },
    {
      "inputs": [
        {
          "internalType": "uint256",
          "name": "_imageId",
          "type": "uint256"
        }
      ],
      "name": "likeImage",
      "outputs": [],
      "stateMutability": "nonpayable",
      "type": "function"
    },
    {
      "inputs": [],
      "name": "withdrawYield",
      "outputs": [],
      "stateMutability": "nonpayable",
      "type": "function"
    },
    {
      "inputs": [],
      "name": "calculateYield",
      "outputs": [
        {
          "internalType": "uint256",
          "name": "",
          "type": "uint256"
        },
        {
          "internalType": "uint256",
          "name": "",
          "type": "uint256"
        }
      ],
      "stateMutability": "view",
      "type": "function",
      "constant": true
    }
  ],
  "bytecode": "0x608060405234801561001057600080fd5b506040516118263803806118268339818101604052602081101561003357600080fd5b810190808051906020019092919050505080600160006101000a81548173ffffffffffffffffffffffffffffffffffffffff021916908373ffffffffffffffffffffffffffffffffffffffff16021790555050611791806100956000396000f3fe608060405234801561001057600080fd5b506004361061007d5760003560e01c8063a91b83141161005b578063a91b831414610236578063e507a8a414610304578063ef3f7dd51461030e578063f0e2e50b1461032c5761007d565b806342bf19011461008257806384856482146100a7578063a87430ba146101d7575b600080fd5b61008a61035a565b604051808381526020018281526020019250505060405180910390f35b6100d3600480360360208110156100bd57600080fd5b8101908080359060200190929190505050610543565b604051808473ffffffffffffffffffffffffffffffffffffffff1681526020018060200180602001838103835285818151815260200191508051906020019080838360005b83811015610133578082015181840152602081019050610118565b50505050905090810190601f1680156101605780820380516001836020036101000a031916815260200191505b50838103825284818151815260200191508051906020019080838360005b8381101561019957808201518184015260208101905061017e565b50505050905090810190601f1680156101c65780820380516001836020036101000a031916815260200191505b509550505050505060405180910390f35b610219600480360360208110156101ed57600080fd5b81019080803573ffffffffffffffffffffffffffffffffffffffff1690602001909291905050506106bd565b604051808381526020018281526020019250505060405180910390f35b6103026004803603604081101561024c57600080fd5b810190808035906020019064010000000081111561026957600080fd5b82018360208201111561027b57600080fd5b8035906020019184600183028401116401000000008311171561029d57600080fd5b9091929391929390803590602001906401000000008111156102be57600080fd5b8201836020820111156102d057600080fd5b803590602001918460018302840111640100000000831117156102f257600080fd5b90919293919293905050506106e1565b005b61030c610ad1565b005b610316610d0d565b6040518082815260200191505060405180910390f35b6103586004803603602081101561034257600080fd5b8101908080359060200190929190505050610d13565b005b6000806000600260003373ffffffffffffffffffffffffffffffffffffffff1673ffffffffffffffffffffffffffffffffffffffff16815260200190815260200160002090506000816001015411156105365760006103ca8260010154836000015461140c90919063ffffffff16565b905060006103f4600f6103e6844261145690919063ffffffff16565b61140c90919063ffffffff16565b9050600080670de0b6b3a764000090506000633b9aca009050600060089050600085111561052457600285106104f95782935060005b61043d828761140c90919063ffffffff16565b8110156104885761046260028303840a83633baa0c400a61140c90919063ffffffff16565b85029450610479848661140c90919063ffffffff16565b9450808060010191505061042a565b50600081868161049457fe5b069050600281106104c6576104bd60028203840a82633baa0c400a61140c90919063ffffffff16565b850294506104de565b60018114156104dd578281633baa0c400a02850294505b5b6104f1848661140c90919063ffffffff16565b94505061050f565b600185141561050e578185633baa0c400a0293505b5b86600101548402935082876001015402840393505b8385985098505050505050505061053f565b60008092509250505b9091565b60036020528060005260406000206000915090508060000160009054906101000a900473ffffffffffffffffffffffffffffffffffffffff1690806001018054600181600116156101000203166002900480601f0160208091040260200160405190810160405280929190818152602001828054600181600116156101000203166002900480156106155780601f106105ea57610100808354040283529160200191610615565b820191906000526020600020905b8154815290600101906020018083116105f857829003601f168201915b505050505090806002018054600181600116156101000203166002900480601f0160208091040260200160405190810160405280929190818152602001828054600181600116156101000203166002900480156106b35780601f10610688576101008083540402835291602001916106b3565b820191906000526020600020905b81548152906001019060200180831161069657829003601f168201915b5050505050905083565b60026020528060005260406000206000915090508060000154908060010154905082565b603284849050111561075b576040517f08c379a00000000000000000000000000000000000000000000000000000000081526004018080602001828103825260188152602001807f49504653484153485f4c454e4754485f4f564552464c4f57000000000000000081525060200191505060405180910390fd5b60648282905011156107d5576040517f08c379a000000000000000000000000000000000000000000000000000000000815260040180806020018281038252601b8152602001807f4445534352495054494f4e5f4c454e4754485f4f564552464c4f57000000000081525060200191505060405180910390fd5b600260003373ffffffffffffffffffffffffffffffffffffffff1673ffffffffffffffffffffffffffffffffffffffff168152602001908152602001600020600201600054908060018154018082558091505060019003906000526020600020016000909190919091505560405180608001604052803373ffffffffffffffffffffffffffffffffffffffff16815260200185858080601f016020809104026020016040519081016040528093929190818152602001838380828437600081840152601f19601f82011690508083019250505050505050815260200183838080601f016020809104026020016040519081016040528093929190818152602001838380828437600081840152601f19601f820116905080830192505050505050508152602001600067ffffffffffffffff8111801561091357600080fd5b506040519080825280602002602001820160405280156109425781602001602082028036833780820191505090505b50815250600360008054815260200190815260200160002060008201518160000160006101000a81548173ffffffffffffffffffffffffffffffffffffffff021916908373ffffffffffffffffffffffffffffffffffffffff16021790555060208201518160010190805190602001906109bd929190611626565b5060408201518160020190805190602001906109da929190611626565b5060608201518160030190805190602001906109f79291906116b4565b509050507f574164f17e796049b35476b8b075102f80f5c6403842325f69c7a2e26aad42c36000543386868686604051808781526020018673ffffffffffffffffffffffffffffffffffffffff16815260200180602001806020018381038352878782818152602001925080828437600081840152601f19601f8201169050808301925050508381038252858582818152602001925080828437600081840152601f19601f8201169050808301925050509850505050505050505060405180910390a1600080815480929190600101919050555050505050565b600080610adc61035a565b91509150600082148015610af05750600081145b15610b63576040517f08c379a000000000000000000000000000000000000000000000000000000000815260040180806020018281038252600f8152602001807f4e4f5f4c494b45445f494d41474553000000000000000000000000000000000081525060200191505060405180910390fd5b600082148015610b74575060008114155b15610be7576040517f08c379a00000000000000000000000000000000000000000000000000000000081526004018080602001828103825260088152602001807f4e4f5f5949454c4400000000000000000000000000000000000000000000000081525060200191505060405180910390fd5b6000600260003373ffffffffffffffffffffffffffffffffffffffff1673ffffffffffffffffffffffffffffffffffffffff16815260200190815260200160002090506000600f610c41844261145690919063ffffffff16565b81610c4857fe5b0690508042038260010154028260000181905550600160009054906101000a900473ffffffffffffffffffffffffffffffffffffffff1673ffffffffffffffffffffffffffffffffffffffff166340c10f1933866040518363ffffffff1660e01b8152600401808373ffffffffffffffffffffffffffffffffffffffff16815260200182815260200192505050600060405180830381600087803b158015610cef57600080fd5b505af1158015610d03573d6000803e3d6000fd5b5050505050505050565b60005481565b6000548110610d8a576040517f08c379a000000000000000000000000000000000000000000000000000000000815260040180806020018281038252600b8152602001807f4e4f5f49445f494d41474500000000000000000000000000000000000000000081525060200191505060405180910390fd5b670de0b6b3a7640000600160009054906101000a900473ffffffffffffffffffffffffffffffffffffffff1673ffffffffffffffffffffffffffffffffffffffff166370a08231336040518263ffffffff1660e01b8152600401808273ffffffffffffffffffffffffffffffffffffffff16815260200191505060206040518083038186803b158015610e1c57600080fd5b505afa158015610e30573d6000803e3d6000fd5b505050506040513d6020811015610e4657600080fd5b81019080805190602001909291905050501015610ecb576040517f08c379a00000000000000000000000000000000000000000000000000000000081526004018080602001828103825260108152602001807f4e4f5f544f4b454e5f42414c414e43450000000000000000000000000000000081525060200191505060405180910390fd5b670de0b6b3a7640000600160009054906101000a900473ffffffffffffffffffffffffffffffffffffffff1673ffffffffffffffffffffffffffffffffffffffff1663dd62ed3e33306040518363ffffffff1660e01b8152600401808373ffffffffffffffffffffffffffffffffffffffff1681526020018273ffffffffffffffffffffffffffffffffffffffff1681526020019250505060206040518083038186803b158015610f7b57600080fd5b505afa158015610f8f573d6000803e3d6000fd5b505050506040513d6020811015610fa557600080fd5b8101908080519060200190929190505050101561102a576040517f08c379a00000000000000000000000000000000000000000000000000000000081526004018080602001828103825260128152602001807f4e4f5f544f4b454e5f414c4c4f57414e4345000000000000000000000000000081525060200191505060405180910390fd5b60001515600260003373ffffffffffffffffffffffffffffffffffffffff1673ffffffffffffffffffffffffffffffffffffffff168152602001908152602001600020600301600083815260200190815260200160002060009054906101000a900460ff16151514611104576040517f08c379a000000000000000000000000000000000000000000000000000000000815260040180806020018281038252600b8152602001807f494d4147455f4c494b454400000000000000000000000000000000000000000081525060200191505060405180910390fd5b600160009054906101000a900473ffffffffffffffffffffffffffffffffffffffff1673ffffffffffffffffffffffffffffffffffffffff166323b872dd336003600085815260200190815260200160002060000160009054906101000a900473ffffffffffffffffffffffffffffffffffffffff16670de0b6b3a76400006040518463ffffffff1660e01b8152600401808473ffffffffffffffffffffffffffffffffffffffff1681526020018373ffffffffffffffffffffffffffffffffffffffff1681526020018281526020019350505050602060405180830381600087803b1580156111f357600080fd5b505af1158015611207573d6000803e3d6000fd5b505050506040513d602081101561121d57600080fd5b8101908080519060200190929190505050506001600260003373ffffffffffffffffffffffffffffffffffffffff1673ffffffffffffffffffffffffffffffffffffffff168152602001908152602001600020600301600083815260200190815260200160002060006101000a81548160ff021916908315150217905550600260003373ffffffffffffffffffffffffffffffffffffffff1673ffffffffffffffffffffffffffffffffffffffff1681526020019081526020016000206001016000815480929190600101919050555042600260003373ffffffffffffffffffffffffffffffffffffffff1673ffffffffffffffffffffffffffffffffffffffff1681526020019081526020016000206000016000828254019250508190555060036000828152602001908152602001600020600301339080600181540180825580915050600190039060005260206000200160009091909190916101000a81548173ffffffffffffffffffffffffffffffffffffffff021916908373ffffffffffffffffffffffffffffffffffffffff1602179055507f49562164a49dfb5b565ca84303f8d9f230c48aa665035838d26ffd38522a69798133604051808381526020018273ffffffffffffffffffffffffffffffffffffffff1681526020019250505060405180910390a150565b600061144e83836040518060400160405280601a81526020017f536166654d6174683a206469766973696f6e206279207a65726f0000000000008152506114a0565b905092915050565b600061149883836040518060400160405280601e81526020017f536166654d6174683a207375627472616374696f6e206f766572666c6f770000815250611566565b905092915050565b6000808311829061154c576040517f08c379a00000000000000000000000000000000000000000000000000000000081526004018080602001828103825283818151815260200191508051906020019080838360005b838110156115115780820151818401526020810190506114f6565b50505050905090810190601f16801561153e5780820380516001836020036101000a031916815260200191505b509250505060405180910390fd5b50600083858161155857fe5b049050809150509392505050565b6000838311158290611613576040517f08c379a00000000000000000000000000000000000000000000000000000000081526004018080602001828103825283818151815260200191508051906020019080838360005b838110156115d85780820151818401526020810190506115bd565b50505050905090810190601f1680156116055780820380516001836020036101000a031916815260200191505b509250505060405180910390fd5b5060008385039050809150509392505050565b828054600181600116156101000203166002900490600052602060002090601f01602090048101928261165c57600085556116a3565b82601f1061167557805160ff19168380011785556116a3565b828001600101855582156116a3579182015b828111156116a2578251825591602001919060010190611687565b5b5090506116b0919061173e565b5090565b82805482825590600052602060002090810192821561172d579160200282015b8281111561172c5782518260006101000a81548173ffffffffffffffffffffffffffffffffffffffff021916908373ffffffffffffffffffffffffffffffffffffffff160217905550916020019190600101906116d4565b5b50905061173a919061173e565b5090565b5b8082111561175757600081600090555060010161173f565b509056fea2646970667358221220f4d2291b400e1d99885b3fa519c95c73fc15c440bec0e2986b08de982eedca4564736f6c63430007060033",
  "immutableReferences": {},
  "source": "// SPDX-License-Identifier: MIT\r\n\r\npragma solidity ^0.7.6;\r\n\r\nimport './LikeToken.sol';\r\nimport '@openzeppelin/contracts/math/SafeMath.sol';\r\n\r\ncontract LikeChain\r\n{\r\n    using SafeMath for uint;\r\n\r\n    uint constant YIELD_PERCENT = 1001000000; //1.001%\r\n    uint constant YIELD_INTERVAL = 15 seconds;\r\n    uint constant LIKE_VALUE = 1 ether;\r\n    uint public imageId;\r\n\r\n    LikeToken likeToken;\r\n    mapping(address => User) public users;\r\n    mapping(uint => Image) public images;\r\n\r\n    struct User {\r\n        uint likedTimestamps;\r\n        uint likedCount;\r\n        uint[] images;\r\n        mapping(uint => bool) liked;\r\n    }\r\n\r\n    struct Image {\r\n        address author;\r\n        string IPFShash;\r\n        string description;\r\n        address[] likes;\r\n    }\r\n\r\n    event ImageCreated (\r\n        uint id,\r\n        address author,\r\n        string IPFShash,\r\n        string description\r\n    );\r\n\r\n    event ImageLiked (\r\n        uint id,\r\n        address user\r\n    );\r\n\r\n    constructor(address _likeToken)\r\n    {\r\n        likeToken = LikeToken(_likeToken);\r\n    }\r\n\r\n    function uploadImage(string calldata _IPFShash, string calldata _description) external\r\n    {\r\n        require(bytes(_IPFShash).length <= 50, 'IPFSHASH_LENGTH_OVERFLOW');\r\n        require(bytes(_description).length <= 100, 'DESCRIPTION_LENGTH_OVERFLOW');\r\n\r\n        users[msg.sender].images.push(imageId);\r\n        images[imageId] = Image(msg.sender, _IPFShash, _description, new address[](0));\r\n        emit ImageCreated(imageId, msg.sender, _IPFShash, _description);\r\n        imageId++;\r\n    }\r\n\r\n    function likeImage(uint _imageId) external\r\n    {\r\n        require(_imageId < imageId, 'NO_ID_IMAGE');\r\n        require(likeToken.balanceOf(msg.sender) >= LIKE_VALUE, 'NO_TOKEN_BALANCE');\r\n        require(likeToken.allowance(msg.sender, address(this)) >= LIKE_VALUE, 'NO_TOKEN_ALLOWANCE');\r\n        require(users[msg.sender].liked[_imageId] == false, 'IMAGE_LIKED');\r\n\r\n        likeToken.transferFrom(msg.sender, images[_imageId].author, LIKE_VALUE);\r\n        users[msg.sender].liked[_imageId] = true;\r\n        users[msg.sender].likedCount++;\r\n        users[msg.sender].likedTimestamps += block.timestamp;\r\n        images[_imageId].likes.push(msg.sender);\r\n        emit ImageLiked(_imageId, msg.sender);\r\n    }\r\n\r\n    function withdrawYield() external\r\n    {\r\n        (uint yield, uint avg) = calculateYield();\r\n        if (yield == 0 && avg == 0) revert('NO_LIKED_IMAGES');\r\n        if (yield == 0 && avg != 0) revert('NO_YIELD');\r\n\r\n        User storage user = users[msg.sender];\r\n        uint remainder = block.timestamp.sub(avg) % YIELD_INTERVAL;\r\n        user.likedTimestamps = user.likedCount * (block.timestamp - remainder);\r\n        likeToken.mint(msg.sender, yield);\r\n    }\r\n\r\n    function calculateYield() public view returns(uint, uint) \r\n    {\r\n        User storage user = users[msg.sender];\r\n        if (user.likedCount > 0) {\r\n            uint avg = user.likedTimestamps.div(user.likedCount);\r\n            uint intervalCount = block.timestamp.sub(avg).div(YIELD_INTERVAL);\r\n            uint yield = 0;\r\n            uint base = 1 ether;\r\n            uint divisor = 10 ** 9;\r\n            uint interval = 8;\r\n            if (intervalCount > 0) {\r\n                if (intervalCount >= 2) {\r\n                    yield = base;\r\n                    for (uint i = 0; i < intervalCount.div(interval); i++) {\r\n                        yield *= (YIELD_PERCENT ** interval).div(divisor ** (interval - 2));\r\n                        yield = yield.div(base);\r\n                    }\r\n                    uint remainder = intervalCount % interval;\r\n                    if (remainder >= 2) {\r\n                        yield *= (YIELD_PERCENT ** remainder).div(divisor ** (remainder - 2));\r\n                    } else if (remainder == 1) {\r\n                        yield *= YIELD_PERCENT ** remainder * divisor;\r\n                    }\r\n                    yield = yield.div(base);\r\n                } else if (intervalCount == 1) {\r\n                    yield = YIELD_PERCENT ** intervalCount * divisor;\r\n                }\r\n                yield *= user.likedCount;\r\n                yield -= user.likedCount * base;\r\n            }\r\n            return (yield, intervalCount);\r\n        } else {\r\n            return (0, 0);\r\n        }\r\n    }\r\n}",
  "sourcePath": "C:/Users/Moje/Desktop/dev/likechain/contracts/LikeChain.sol",
  "compiler": {
    "name": "solc",
    "version": "0.7.6+commit.7338295f.Emscripten.clang"
  },
  "schemaVersion": "3.3.3",
  "updatedAt": "2021-02-10T17:51:55.158Z",
  "networkType": "ethereum",
  "devdoc": {
    "kind": "dev",
    "methods": {},
    "version": 1
  },
  "userdoc": {
    "kind": "user",
    "methods": {},
    "version": 1
  }
}