{
  "contractName": "LikeChain",
  "abi": [
    {
      "inputs": [
        {
          "internalType": "address",
          "name": "_likeToken",
          "type": "address"
        }
      ],
      "stateMutability": "nonpayable",
      "type": "constructor"
    },
    {
      "inputs": [],
      "name": "imageCount",
      "outputs": [
        {
          "internalType": "uint256",
          "name": "",
          "type": "uint256"
        }
      ],
      "stateMutability": "view",
      "type": "function"
    },
    {
      "inputs": [],
      "name": "totalLikes",
      "outputs": [
        {
          "internalType": "uint256",
          "name": "",
          "type": "uint256"
        }
      ],
      "stateMutability": "view",
      "type": "function"
    },
    {
      "inputs": [
        {
          "internalType": "string",
          "name": "_IPFShash",
          "type": "string"
        },
        {
          "internalType": "string",
          "name": "_description",
          "type": "string"
        }
      ],
      "name": "uploadImage",
      "outputs": [],
      "stateMutability": "nonpayable",
      "type": "function"
    },
    {
      "inputs": [],
      "name": "likeImage",
      "outputs": [],
      "stateMutability": "nonpayable",
      "type": "function"
    }
  ],
  "bytecode": "0x608060405234801561001057600080fd5b506040516105873803806105878339818101604052602081101561003357600080fd5b810190808051906020019092919050505080600360006101000a81548173ffffffffffffffffffffffffffffffffffffffff021916908373ffffffffffffffffffffffffffffffffffffffff16021790555033600460006101000a81548173ffffffffffffffffffffffffffffffffffffffff021916908373ffffffffffffffffffffffffffffffffffffffff160217905550506104b1806100d66000396000f3fe608060405234801561001057600080fd5b506004361061004c5760003560e01c80630f90d9001461005157806392053b631461006f578063a91b83141461008d578063fb6a44cd146101df575b600080fd5b6100596101e9565b6040518082815260200191505060405180910390f35b6100776101ef565b6040518082815260200191505060405180910390f35b6101dd600480360360408110156100a357600080fd5b81019080803590602001906401000000008111156100c057600080fd5b8201836020820111156100d257600080fd5b803590602001918460018302840111640100000000831117156100f457600080fd5b91908080601f016020809104026020016040519081016040528093929190818152602001838380828437600081840152601f19601f8201169050808301925050505050505091929192908035906020019064010000000081111561015757600080fd5b82018360208201111561016957600080fd5b8035906020019184600183028401116401000000008311171561018b57600080fd5b91908080601f016020809104026020016040519081016040528093929190818152602001838380828437600081840152601f19601f8201169050808301925050505050505091929192905050506101f5565b005b6101e76103ae565b005b60015481565b60005481565b60328251111561026d576040517f08c379a000000000000000000000000000000000000000000000000000000000815260040180806020018281038252601a8152602001807f4950465368617368206c656e67746820697320746f6f2062696700000000000081525060200191505060405180910390fd5b6064815111156102e5576040517f08c379a000000000000000000000000000000000000000000000000000000000815260040180806020018281038252601d8152602001807f4465736372697074696f6e206c656e67746820697320746f6f2062696700000081525060200191505060405180910390fd5b60405180606001604052806000815260200183815260200182815250600560003373ffffffffffffffffffffffffffffffffffffffff1673ffffffffffffffffffffffffffffffffffffffff1681526020019081526020016000206000805481526020019081526020016000206000820151816000015560208201518160010190805190602001906103789291906103d0565b5060408201518160020190805190602001906103959291906103d0565b5090505060008081548092919060010191905055505050565b6103b66103b8565b565b620151804203600254116103ce57426002819055505b565b828054600181600116156101000203166002900490600052602060002090601f016020900481019282610406576000855561044d565b82601f1061041f57805160ff191683800117855561044d565b8280016001018555821561044d579182015b8281111561044c578251825591602001919060010190610431565b5b50905061045a919061045e565b5090565b5b8082111561047757600081600090555060010161045f565b509056fea264697066735822122007d15c83267ae3ce99876da82502122a19491721bd35777b4546fd0a01e871c964736f6c63430007060033",
  "immutableReferences": {},
  "source": "// SPDX-License-Identifier: MIT\n\npragma solidity ^0.7.6;\n\nimport \"./LikeToken.sol\";\n\ncontract LikeChain\n{\n    uint public imageCount;\n    uint public totalLikes;\n    uint lastReward;\n    LikeToken likeToken;\n    address owner;\n    mapping(address => mapping(uint => Image)) images;\n    mapping(address => uint) donators;\n\n    struct Image {\n        uint likes;\n        string IPFShash;\n        string description;\n    }\n\n    constructor(address _likeToken) \n    {\n        likeToken = LikeToken(_likeToken);\n        owner = msg.sender;\n    }\n  \n    function uploadImage(string memory _IPFShash, string memory _description) external \n    {\n        require(bytes(_IPFShash).length <= 50, 'IPFShash length is too big');\n        require(bytes(_description).length <= 100, 'Description length is too big');\n        \n        images[msg.sender][imageCount] = Image(0, _IPFShash, _description);\n        imageCount++;\n    }\n\n    function likeImage() external\n    {\n        rewardDonators();\n    }\n\n    function rewardDonators() private \n    {\n        if (lastReward <= block.timestamp - 86400) {\n            //reward\n            lastReward = block.timestamp;\n        }\n    }\n}",
  "sourcePath": "C:/Users/Martin Burian/Desktop/dev/dece/contracts/LikeChain.sol",
  "compiler": {
    "name": "solc",
    "version": "0.7.6+commit.7338295f.Emscripten.clang"
  },
  "schemaVersion": "3.3.3",
  "updatedAt": "2021-01-30T19:22:14.968Z",
  "devdoc": {
    "kind": "dev",
    "methods": {},
    "version": 1
  },
  "userdoc": {
    "kind": "user",
    "methods": {},
    "version": 1
  }
}