{
  "contractName": "LikeChain",
  "abi": [
    {
      "inputs": [
        {
          "internalType": "address",
          "name": "_likeToken",
          "type": "address"
        }
      ],
      "stateMutability": "nonpayable",
      "type": "constructor"
    },
    {
      "anonymous": false,
      "inputs": [
        {
          "indexed": false,
          "internalType": "uint256",
          "name": "id",
          "type": "uint256"
        },
        {
          "indexed": false,
          "internalType": "address",
          "name": "author",
          "type": "address"
        },
        {
          "indexed": false,
          "internalType": "string",
          "name": "IPFShash",
          "type": "string"
        },
        {
          "indexed": false,
          "internalType": "string",
          "name": "description",
          "type": "string"
        }
      ],
      "name": "ImageCreated",
      "type": "event"
    },
    {
      "anonymous": false,
      "inputs": [
        {
          "indexed": false,
          "internalType": "uint256",
          "name": "id",
          "type": "uint256"
        },
        {
          "indexed": false,
          "internalType": "address",
          "name": "user",
          "type": "address"
        }
      ],
      "name": "ImageLiked",
      "type": "event"
    },
    {
      "inputs": [],
      "name": "imageId",
      "outputs": [
        {
          "internalType": "uint256",
          "name": "",
          "type": "uint256"
        }
      ],
      "stateMutability": "view",
      "type": "function",
      "constant": true
    },
    {
      "inputs": [
        {
          "internalType": "uint256",
          "name": "",
          "type": "uint256"
        }
      ],
      "name": "images",
      "outputs": [
        {
          "internalType": "address",
          "name": "author",
          "type": "address"
        },
        {
          "internalType": "string",
          "name": "IPFShash",
          "type": "string"
        },
        {
          "internalType": "string",
          "name": "description",
          "type": "string"
        }
      ],
      "stateMutability": "view",
      "type": "function",
      "constant": true
    },
    {
      "inputs": [
        {
          "internalType": "address",
          "name": "",
          "type": "address"
        }
      ],
      "name": "users",
      "outputs": [
        {
          "internalType": "uint256",
          "name": "likedTimestamps",
          "type": "uint256"
        },
        {
          "internalType": "uint256",
          "name": "likedCount",
          "type": "uint256"
        }
      ],
      "stateMutability": "view",
      "type": "function",
      "constant": true
    },
    {
      "inputs": [
        {
          "internalType": "string",
          "name": "_IPFShash",
          "type": "string"
        },
        {
          "internalType": "string",
          "name": "_description",
          "type": "string"
        }
      ],
      "name": "multiUpload",
      "outputs": [],
      "stateMutability": "nonpayable",
      "type": "function"
    },
    {
      "inputs": [
        {
          "internalType": "string",
          "name": "_IPFShash",
          "type": "string"
        },
        {
          "internalType": "string",
          "name": "_description",
          "type": "string"
        }
      ],
      "name": "uploadImage",
      "outputs": [],
      "stateMutability": "nonpayable",
      "type": "function"
    },
    {
      "inputs": [
        {
          "internalType": "uint256",
          "name": "_imageId",
          "type": "uint256"
        }
      ],
      "name": "likeImage",
      "outputs": [],
      "stateMutability": "nonpayable",
      "type": "function"
    },
    {
      "inputs": [],
      "name": "withdrawYield",
      "outputs": [],
      "stateMutability": "nonpayable",
      "type": "function"
    },
    {
      "inputs": [],
      "name": "calculateYield",
      "outputs": [
        {
          "internalType": "uint256",
          "name": "",
          "type": "uint256"
        },
        {
          "internalType": "uint256",
          "name": "",
          "type": "uint256"
        }
      ],
      "stateMutability": "view",
      "type": "function",
      "constant": true
    }
  ],
  "bytecode": "0x608060405234801561001057600080fd5b50604051611d09380380611d098339818101604052602081101561003357600080fd5b810190808051906020019092919050505080600160006101000a81548173ffffffffffffffffffffffffffffffffffffffff021916908373ffffffffffffffffffffffffffffffffffffffff16021790555050611c74806100956000396000f3fe608060405234801561001057600080fd5b50600436106100885760003560e01c8063a91b83141161005b578063a91b83141461030f578063e507a8a4146103dd578063ef3f7dd5146103e7578063f0e2e50b1461040557610088565b80632145f5381461008d57806342bf19011461015b5780638485648214610180578063a87430ba146102b0575b600080fd5b610159600480360360408110156100a357600080fd5b81019080803590602001906401000000008111156100c057600080fd5b8201836020820111156100d257600080fd5b803590602001918460018302840111640100000000831117156100f457600080fd5b90919293919293908035906020019064010000000081111561011557600080fd5b82018360208201111561012757600080fd5b8035906020019184600183028401116401000000008311171561014957600080fd5b9091929391929390505050610433565b005b61016361083d565b604051808381526020018281526020019250505060405180910390f35b6101ac6004803603602081101561019657600080fd5b8101908080359060200190929190505050610a26565b604051808473ffffffffffffffffffffffffffffffffffffffff1681526020018060200180602001838103835285818151815260200191508051906020019080838360005b8381101561020c5780820151818401526020810190506101f1565b50505050905090810190601f1680156102395780820380516001836020036101000a031916815260200191505b50838103825284818151815260200191508051906020019080838360005b83811015610272578082015181840152602081019050610257565b50505050905090810190601f16801561029f5780820380516001836020036101000a031916815260200191505b509550505050505060405180910390f35b6102f2600480360360208110156102c657600080fd5b81019080803573ffffffffffffffffffffffffffffffffffffffff169060200190929190505050610ba0565b604051808381526020018281526020019250505060405180910390f35b6103db6004803603604081101561032557600080fd5b810190808035906020019064010000000081111561034257600080fd5b82018360208201111561035457600080fd5b8035906020019184600183028401116401000000008311171561037657600080fd5b90919293919293908035906020019064010000000081111561039757600080fd5b8201836020820111156103a957600080fd5b803590602001918460018302840111640100000000831117156103cb57600080fd5b9091929391929390505050610bc4565b005b6103e5610fb4565b005b6103ef6111f0565b6040518082815260200191505060405180910390f35b6104316004803603602081101561041b57600080fd5b81019080803590602001909291905050506111f6565b005b60328484905011156104ad576040517f08c379a00000000000000000000000000000000000000000000000000000000081526004018080602001828103825260188152602001807f49504653484153485f4c454e4754485f4f564552464c4f57000000000000000081525060200191505060405180910390fd5b6064828290501115610527576040517f08c379a000000000000000000000000000000000000000000000000000000000815260040180806020018281038252601b8152602001807f4445534352495054494f4e5f4c454e4754485f4f564552464c4f57000000000081525060200191505060405180910390fd5b60005b601481101561083657600260003373ffffffffffffffffffffffffffffffffffffffff1673ffffffffffffffffffffffffffffffffffffffff168152602001908152602001600020600201600054908060018154018082558091505060019003906000526020600020016000909190919091505560405180608001604052803373ffffffffffffffffffffffffffffffffffffffff16815260200186868080601f016020809104026020016040519081016040528093929190818152602001838380828437600081840152601f19601f82011690508083019250505050505050815260200184848080601f016020809104026020016040519081016040528093929190818152602001838380828437600081840152601f19601f820116905080830192505050505050508152602001600067ffffffffffffffff8111801561067157600080fd5b506040519080825280602002602001820160405280156106a05781602001602082028036833780820191505090505b50815250600360008054815260200190815260200160002060008201518160000160006101000a81548173ffffffffffffffffffffffffffffffffffffffff021916908373ffffffffffffffffffffffffffffffffffffffff160217905550602082015181600101908051906020019061071b929190611b09565b506040820151816002019080519060200190610738929190611b09565b506060820151816003019080519060200190610755929190611b97565b509050507f574164f17e796049b35476b8b075102f80f5c6403842325f69c7a2e26aad42c36000543387878787604051808781526020018673ffffffffffffffffffffffffffffffffffffffff16815260200180602001806020018381038352878782818152602001925080828437600081840152601f19601f8201169050808301925050508381038252858582818152602001925080828437600081840152601f19601f8201169050808301925050509850505050505050505060405180910390a16000808154809291906001019190505550808060010191505061052a565b5050505050565b6000806000600260003373ffffffffffffffffffffffffffffffffffffffff1673ffffffffffffffffffffffffffffffffffffffff1681526020019081526020016000209050600081600101541115610a195760006108ad826001015483600001546118ef90919063ffffffff16565b905060006108d7600f6108c9844261193990919063ffffffff16565b6118ef90919063ffffffff16565b9050600080670de0b6b3a764000090506000633b9aca0090506000600890506000851115610a0757600285106109dc5782935060005b61092082876118ef90919063ffffffff16565b81101561096b5761094560028303840a83633baa0c400a6118ef90919063ffffffff16565b8502945061095c84866118ef90919063ffffffff16565b9450808060010191505061090d565b50600081868161097757fe5b069050600281106109a9576109a060028203840a82633baa0c400a6118ef90919063ffffffff16565b850294506109c1565b60018114156109c0578281633baa0c400a02850294505b5b6109d484866118ef90919063ffffffff16565b9450506109f2565b60018514156109f1578185633baa0c400a0293505b5b86600101548402935082876001015402840393505b83859850985050505050505050610a22565b60008092509250505b9091565b60036020528060005260406000206000915090508060000160009054906101000a900473ffffffffffffffffffffffffffffffffffffffff1690806001018054600181600116156101000203166002900480601f016020809104026020016040519081016040528092919081815260200182805460018160011615610100020316600290048015610af85780601f10610acd57610100808354040283529160200191610af8565b820191906000526020600020905b815481529060010190602001808311610adb57829003601f168201915b505050505090806002018054600181600116156101000203166002900480601f016020809104026020016040519081016040528092919081815260200182805460018160011615610100020316600290048015610b965780601f10610b6b57610100808354040283529160200191610b96565b820191906000526020600020905b815481529060010190602001808311610b7957829003601f168201915b5050505050905083565b60026020528060005260406000206000915090508060000154908060010154905082565b6032848490501115610c3e576040517f08c379a00000000000000000000000000000000000000000000000000000000081526004018080602001828103825260188152602001807f49504653484153485f4c454e4754485f4f564552464c4f57000000000000000081525060200191505060405180910390fd5b6064828290501115610cb8576040517f08c379a000000000000000000000000000000000000000000000000000000000815260040180806020018281038252601b8152602001807f4445534352495054494f4e5f4c454e4754485f4f564552464c4f57000000000081525060200191505060405180910390fd5b600260003373ffffffffffffffffffffffffffffffffffffffff1673ffffffffffffffffffffffffffffffffffffffff168152602001908152602001600020600201600054908060018154018082558091505060019003906000526020600020016000909190919091505560405180608001604052803373ffffffffffffffffffffffffffffffffffffffff16815260200185858080601f016020809104026020016040519081016040528093929190818152602001838380828437600081840152601f19601f82011690508083019250505050505050815260200183838080601f016020809104026020016040519081016040528093929190818152602001838380828437600081840152601f19601f820116905080830192505050505050508152602001600067ffffffffffffffff81118015610df657600080fd5b50604051908082528060200260200182016040528015610e255781602001602082028036833780820191505090505b50815250600360008054815260200190815260200160002060008201518160000160006101000a81548173ffffffffffffffffffffffffffffffffffffffff021916908373ffffffffffffffffffffffffffffffffffffffff1602179055506020820151816001019080519060200190610ea0929190611b09565b506040820151816002019080519060200190610ebd929190611b09565b506060820151816003019080519060200190610eda929190611b97565b509050507f574164f17e796049b35476b8b075102f80f5c6403842325f69c7a2e26aad42c36000543386868686604051808781526020018673ffffffffffffffffffffffffffffffffffffffff16815260200180602001806020018381038352878782818152602001925080828437600081840152601f19601f8201169050808301925050508381038252858582818152602001925080828437600081840152601f19601f8201169050808301925050509850505050505050505060405180910390a1600080815480929190600101919050555050505050565b600080610fbf61083d565b91509150600082148015610fd35750600081145b15611046576040517f08c379a000000000000000000000000000000000000000000000000000000000815260040180806020018281038252600f8152602001807f4e4f5f4c494b45445f494d41474553000000000000000000000000000000000081525060200191505060405180910390fd5b600082148015611057575060008114155b156110ca576040517f08c379a00000000000000000000000000000000000000000000000000000000081526004018080602001828103825260088152602001807f4e4f5f5949454c4400000000000000000000000000000000000000000000000081525060200191505060405180910390fd5b6000600260003373ffffffffffffffffffffffffffffffffffffffff1673ffffffffffffffffffffffffffffffffffffffff16815260200190815260200160002090506000600f611124844261193990919063ffffffff16565b8161112b57fe5b0690508042038260010154028260000181905550600160009054906101000a900473ffffffffffffffffffffffffffffffffffffffff1673ffffffffffffffffffffffffffffffffffffffff166340c10f1933866040518363ffffffff1660e01b8152600401808373ffffffffffffffffffffffffffffffffffffffff16815260200182815260200192505050600060405180830381600087803b1580156111d257600080fd5b505af11580156111e6573d6000803e3d6000fd5b5050505050505050565b60005481565b600054811061126d576040517f08c379a000000000000000000000000000000000000000000000000000000000815260040180806020018281038252600b8152602001807f4e4f5f49445f494d41474500000000000000000000000000000000000000000081525060200191505060405180910390fd5b670de0b6b3a7640000600160009054906101000a900473ffffffffffffffffffffffffffffffffffffffff1673ffffffffffffffffffffffffffffffffffffffff166370a08231336040518263ffffffff1660e01b8152600401808273ffffffffffffffffffffffffffffffffffffffff16815260200191505060206040518083038186803b1580156112ff57600080fd5b505afa158015611313573d6000803e3d6000fd5b505050506040513d602081101561132957600080fd5b810190808051906020019092919050505010156113ae576040517f08c379a00000000000000000000000000000000000000000000000000000000081526004018080602001828103825260108152602001807f4e4f5f544f4b454e5f42414c414e43450000000000000000000000000000000081525060200191505060405180910390fd5b670de0b6b3a7640000600160009054906101000a900473ffffffffffffffffffffffffffffffffffffffff1673ffffffffffffffffffffffffffffffffffffffff1663dd62ed3e33306040518363ffffffff1660e01b8152600401808373ffffffffffffffffffffffffffffffffffffffff1681526020018273ffffffffffffffffffffffffffffffffffffffff1681526020019250505060206040518083038186803b15801561145e57600080fd5b505afa158015611472573d6000803e3d6000fd5b505050506040513d602081101561148857600080fd5b8101908080519060200190929190505050101561150d576040517f08c379a00000000000000000000000000000000000000000000000000000000081526004018080602001828103825260128152602001807f4e4f5f544f4b454e5f414c4c4f57414e4345000000000000000000000000000081525060200191505060405180910390fd5b60001515600260003373ffffffffffffffffffffffffffffffffffffffff1673ffffffffffffffffffffffffffffffffffffffff168152602001908152602001600020600301600083815260200190815260200160002060009054906101000a900460ff161515146115e7576040517f08c379a000000000000000000000000000000000000000000000000000000000815260040180806020018281038252600b8152602001807f494d4147455f4c494b454400000000000000000000000000000000000000000081525060200191505060405180910390fd5b600160009054906101000a900473ffffffffffffffffffffffffffffffffffffffff1673ffffffffffffffffffffffffffffffffffffffff166323b872dd336003600085815260200190815260200160002060000160009054906101000a900473ffffffffffffffffffffffffffffffffffffffff16670de0b6b3a76400006040518463ffffffff1660e01b8152600401808473ffffffffffffffffffffffffffffffffffffffff1681526020018373ffffffffffffffffffffffffffffffffffffffff1681526020018281526020019350505050602060405180830381600087803b1580156116d657600080fd5b505af11580156116ea573d6000803e3d6000fd5b505050506040513d602081101561170057600080fd5b8101908080519060200190929190505050506001600260003373ffffffffffffffffffffffffffffffffffffffff1673ffffffffffffffffffffffffffffffffffffffff168152602001908152602001600020600301600083815260200190815260200160002060006101000a81548160ff021916908315150217905550600260003373ffffffffffffffffffffffffffffffffffffffff1673ffffffffffffffffffffffffffffffffffffffff1681526020019081526020016000206001016000815480929190600101919050555042600260003373ffffffffffffffffffffffffffffffffffffffff1673ffffffffffffffffffffffffffffffffffffffff1681526020019081526020016000206000016000828254019250508190555060036000828152602001908152602001600020600301339080600181540180825580915050600190039060005260206000200160009091909190916101000a81548173ffffffffffffffffffffffffffffffffffffffff021916908373ffffffffffffffffffffffffffffffffffffffff1602179055507f49562164a49dfb5b565ca84303f8d9f230c48aa665035838d26ffd38522a69798133604051808381526020018273ffffffffffffffffffffffffffffffffffffffff1681526020019250505060405180910390a150565b600061193183836040518060400160405280601a81526020017f536166654d6174683a206469766973696f6e206279207a65726f000000000000815250611983565b905092915050565b600061197b83836040518060400160405280601e81526020017f536166654d6174683a207375627472616374696f6e206f766572666c6f770000815250611a49565b905092915050565b60008083118290611a2f576040517f08c379a00000000000000000000000000000000000000000000000000000000081526004018080602001828103825283818151815260200191508051906020019080838360005b838110156119f45780820151818401526020810190506119d9565b50505050905090810190601f168015611a215780820380516001836020036101000a031916815260200191505b509250505060405180910390fd5b506000838581611a3b57fe5b049050809150509392505050565b6000838311158290611af6576040517f08c379a00000000000000000000000000000000000000000000000000000000081526004018080602001828103825283818151815260200191508051906020019080838360005b83811015611abb578082015181840152602081019050611aa0565b50505050905090810190601f168015611ae85780820380516001836020036101000a031916815260200191505b509250505060405180910390fd5b5060008385039050809150509392505050565b828054600181600116156101000203166002900490600052602060002090601f016020900481019282611b3f5760008555611b86565b82601f10611b5857805160ff1916838001178555611b86565b82800160010185558215611b86579182015b82811115611b85578251825591602001919060010190611b6a565b5b509050611b939190611c21565b5090565b828054828255906000526020600020908101928215611c10579160200282015b82811115611c0f5782518260006101000a81548173ffffffffffffffffffffffffffffffffffffffff021916908373ffffffffffffffffffffffffffffffffffffffff16021790555091602001919060010190611bb7565b5b509050611c1d9190611c21565b5090565b5b80821115611c3a576000816000905550600101611c22565b509056fea2646970667358221220e334821eec62878b541829fee9e1aadc19793f3df1b905d4143589fc0c15df5e64736f6c63430007060033",
  "immutableReferences": {},
  "source": "// SPDX-License-Identifier: MIT\r\n\r\npragma solidity ^0.7.6;\r\n\r\nimport './LikeToken.sol';\r\nimport '@openzeppelin/contracts/math/SafeMath.sol';\r\n\r\ncontract LikeChain\r\n{\r\n    using SafeMath for uint;\r\n\r\n    uint constant YIELD_PERCENT = 1001000000; //1.001%\r\n    uint constant YIELD_INTERVAL = 15 seconds;\r\n    uint constant LIKE_VALUE = 1 ether;\r\n    uint public imageId;\r\n\r\n    LikeToken likeToken;\r\n    mapping(address => User) public users;\r\n    mapping(uint => Image) public images;\r\n\r\n    struct User {\r\n        uint likedTimestamps;\r\n        uint likedCount;\r\n        uint[] images;\r\n        mapping(uint => bool) liked;\r\n    }\r\n\r\n    struct Image {\r\n        address author;\r\n        string IPFShash;\r\n        string description;\r\n        address[] likes;\r\n    }\r\n\r\n    event ImageCreated (\r\n        uint id,\r\n        address author,\r\n        string IPFShash,\r\n        string description\r\n    );\r\n\r\n    event ImageLiked (\r\n        uint id,\r\n        address user\r\n    );\r\n\r\n    constructor(address _likeToken)\r\n    {\r\n        likeToken = LikeToken(_likeToken);\r\n    }\r\n\r\n    function multiUpload(string calldata _IPFShash, string calldata _description) external\r\n    {\r\n        require(bytes(_IPFShash).length <= 50, 'IPFSHASH_LENGTH_OVERFLOW');\r\n        require(bytes(_description).length <= 100, 'DESCRIPTION_LENGTH_OVERFLOW');\r\n\r\n        for (uint i = 0; i < 20; i++) {\r\n            users[msg.sender].images.push(imageId);\r\n            images[imageId] = Image(msg.sender, _IPFShash, _description, new address[](0));\r\n            emit ImageCreated(imageId, msg.sender, _IPFShash, _description);\r\n            imageId++;\r\n        }\r\n    }\r\n\r\n    function uploadImage(string calldata _IPFShash, string calldata _description) external\r\n    {\r\n        require(bytes(_IPFShash).length <= 50, 'IPFSHASH_LENGTH_OVERFLOW');\r\n        require(bytes(_description).length <= 100, 'DESCRIPTION_LENGTH_OVERFLOW');\r\n\r\n        users[msg.sender].images.push(imageId);\r\n        images[imageId] = Image(msg.sender, _IPFShash, _description, new address[](0));\r\n        emit ImageCreated(imageId, msg.sender, _IPFShash, _description);\r\n        imageId++;\r\n    }\r\n\r\n    function likeImage(uint _imageId) external\r\n    {\r\n        require(_imageId < imageId, 'NO_ID_IMAGE');\r\n        require(likeToken.balanceOf(msg.sender) >= LIKE_VALUE, 'NO_TOKEN_BALANCE');\r\n        require(likeToken.allowance(msg.sender, address(this)) >= LIKE_VALUE, 'NO_TOKEN_ALLOWANCE');\r\n        require(users[msg.sender].liked[_imageId] == false, 'IMAGE_LIKED');\r\n\r\n        likeToken.transferFrom(msg.sender, images[_imageId].author, LIKE_VALUE);\r\n        users[msg.sender].liked[_imageId] = true;\r\n        users[msg.sender].likedCount++;\r\n        users[msg.sender].likedTimestamps += block.timestamp;\r\n        images[_imageId].likes.push(msg.sender);\r\n        emit ImageLiked(_imageId, msg.sender);\r\n    }\r\n\r\n    function withdrawYield() external\r\n    {\r\n        (uint yield, uint avg) = calculateYield();\r\n        if (yield == 0 && avg == 0) revert('NO_LIKED_IMAGES');\r\n        if (yield == 0 && avg != 0) revert('NO_YIELD');\r\n\r\n        User storage user = users[msg.sender];\r\n        uint remainder = block.timestamp.sub(avg) % YIELD_INTERVAL;\r\n        user.likedTimestamps = user.likedCount * (block.timestamp - remainder);\r\n        likeToken.mint(msg.sender, yield);\r\n    }\r\n\r\n    function calculateYield() public view returns(uint, uint) \r\n    {\r\n        User storage user = users[msg.sender];\r\n        if (user.likedCount > 0) {\r\n            uint avg = user.likedTimestamps.div(user.likedCount);\r\n            uint intervalCount = block.timestamp.sub(avg).div(YIELD_INTERVAL);\r\n            uint yield = 0;\r\n            uint base = 1 ether;\r\n            uint divisor = 10 ** 9;\r\n            uint interval = 8;\r\n            if (intervalCount > 0) {\r\n                if (intervalCount >= 2) {\r\n                    yield = base;\r\n                    for (uint i = 0; i < intervalCount.div(interval); i++) {\r\n                        yield *= (YIELD_PERCENT ** interval).div(divisor ** (interval - 2));\r\n                        yield = yield.div(base);\r\n                    }\r\n                    uint remainder = intervalCount % interval;\r\n                    if (remainder >= 2) {\r\n                        yield *= (YIELD_PERCENT ** remainder).div(divisor ** (remainder - 2));\r\n                    } else if (remainder == 1) {\r\n                        yield *= YIELD_PERCENT ** remainder * divisor;\r\n                    }\r\n                    yield = yield.div(base);\r\n                } else if (intervalCount == 1) {\r\n                    yield = YIELD_PERCENT ** intervalCount * divisor;\r\n                }\r\n                yield *= user.likedCount;\r\n                yield -= user.likedCount * base;\r\n            }\r\n            return (yield, intervalCount);\r\n        } else {\r\n            return (0, 0);\r\n        }\r\n    }\r\n}",
  "sourcePath": "C:/Users/Moje/Desktop/dev/likechain/contracts/LikeChain.sol",
  "compiler": {
    "name": "solc",
    "version": "0.7.6+commit.7338295f.Emscripten.clang"
  },
  "schemaVersion": "3.3.3",
  "updatedAt": "2021-02-11T19:40:21.574Z",
  "networkType": "ethereum",
  "devdoc": {
    "kind": "dev",
    "methods": {},
    "version": 1
  },
  "userdoc": {
    "kind": "user",
    "methods": {},
    "version": 1
  }
}